:100000000C94D8010C941F020C941F020C94250927
:100010000C941F020C941F020C941F020C941F02DC
:100020000C941F020C941F020C94771C0C94491D15
:100030000C9437150C941F020C941F020C941F0291
:100040000C941F020C941F020C941F020C941F02AC
:100050000C941F020C9484150C941F020C941F0224
:100060000C941F020C941F020C941F020C941F028C
:100070000C941F020C941F020C941F020C941F027C
:100080000C941F020C941F020C941F020C941F026C
:100090000C941F020C941F020C941F020C941F025C
:1000A0000C941F020C941F020C941F02D70BD70B49
:1000B000090C090C6A0D560C6A0D6A0D610CFA0CDC
:1000C0000B0D0B0D020E020E140E140E0B0E140E61
:1000D000140E140E020E020E100E140E140E100E3C
:1000E000B61DDD1DD51EDD1DD51E291E4C1ED51EBF
:1000F000A31EB21EE60014001A0008001500170027
:10010000390004001600070009000A00E1001D0084
:100110001B00060019000500000000000000E200BE
:1001200001512C002A00130012000C0018001C00C2
:10013000340033000F000E000D000B0029003800C2
:1001400037003600100011000000000000002B00F6
:10015000025128002B001E001F0020002100220059
:10016000390000000000000000000000E100000075
:100170000000000000000000000000000000E3009C
:1001800001002C002A00270026002500240023005F
:10019000000000004F00520051005000000000001D
:1001A0000000000000000000000000000000E60069
:1001B000035128002B001E021F02200221022202EE
:1001C000390000000000000000000000E100000015
:1001D0000000000000000000000000000000E3003C
:1001E00003512C002A0027022602250224022302A2
:1001F0003500310030002F002E002D003502310275
:1002000030022F022E022D02000000000000E60046
:1002100001002800005C0000000000000000000059
:10022000C35CC65CC85CCA5C00000000C45CC75C00
:10023000C95CCB5C00000000000000000000E3008F
:1002400001002C0000000000000000000000000081
:10025000000000000000000000000000000000009E
:100260000000000000000000000000000000E600A8
:1002700001002800480343006F0072006E00650013
:1002800020004B006500790062006F006100720081
:10029000640020005200650076002E00310020002E
:1002A0002800530070006C006900740020004300B7
:1002B0006F006D006D006F006E00290000001003DC
:1002C00066006F006F007300740061006E00000034
:1002D0000403090409023B00020100A0FA0904001A
:1002E0000001030101000921110100012240000762
:1002F00005810308000A0904010001030000000948
:100300002111010001224F000705820320000A127B
:100310000110010000000853460100010001020025
:100320000105010902A10185020901A100050919C0
:1003300001290515002501950575018102950175B5
:100340000381010501093009311581257F95027569
:1003500008810609381581257F95017508810605F4
:100360000C0A38021581257F950175088106C0C0E9
:1003700005010906A101050719E029E71500250176
:10038000950875018102950175088101050719001D
:1003900029FF150026FF009506750881000508193C
:1003A000012905950575019102950175039101C01B
:1003B00011241FBECFEFDAE0DEBFCDBF04B603FECF
:1003C00027C08091F5019091F601A091F701B091BD
:1003D000F8018730904BA740B04BD1F41092F50153
:1003E0001092F6011092F7011092F80114BE84B732
:1003F000877F84BF0FB6F894A895809160008861CC
:1004000080936000109260000FBEE0E0F8E3099571
:1004100011E0A0E0B1E0E6EFFEE302C005900D922E
:10042000AC32B107D9F721E0ACE2B1E001C01D92D6
:10043000A53FB207E1F70E94B7190C94791F0C94FD
:1004400000000C94B10481E0089581E008950C94BB
:10045000250208950C9429021F93CF93DF9300D0B7
:1004600000D01F92CDB7DEB749835A836B8330919A
:100470004B0189819A81311114C0662359F02223DE
:1004800049F00E94C012182F682F89819A810E941A
:10049000671203C00E949312182F69817A81812FFD
:1004A00004C00E94C01269817A810F900F900F9052
:1004B0000F900F90DF91CF911F910C94DA02FC0105
:1004C000262F408151816281738184810C942C029A
:1004D000CF93DF93EC0160E00E945F02BE01DF91E9
:1004E000CF910C942A020E94E513811102C00E9450
:1004F0008C140C9421020C94AF0408950E94F00D0A
:100500000E947D022FEF84E39CE0215080409040C8
:10051000E1F700C000000C94AA150F931F93CF932E
:10052000DF93EC0161E00E945F028C01BE010E943A
:100530002702882349F1BE01C8010E94CC06882306
:1005400019F1BE01C8010E941E078823E9F0BE010F
:10055000C8010E9449088823B9F08A81882369F07C
:1005600001158CE5180731F00F3D1C4531F40E9450
:100570008C140AC00E947E0207C0CE01DF91CF9189
:100580001F910F910C94230280E0DF91CF911F9176
:100590000F91089508950C94CA0281E008950C9477
:1005A000CD02CF93C82F0E94CB028C2F0E94CF0286
:1005B000CF91089520E3829FC0011124FC0126E021
:1005C000729FE00DF11D1124E60FF11DEE0FFF1FCC
:1005D000EC50FF4F859194910895CF93DF930E9443
:1005E000DA020E94CA03EC018115924580F5C1151B
:1005F00081E5D80708F095C0CF3FD10509F0B8F4E0
:10060000C03FD10508F06CC0C53AD10548F4C430EC
:10061000D10508F0BBC0C130D10509F4B7C0B4C0E2
:10062000CE01805E9109089708F4B0C0ADC0C11535
:1006300090E5D90708F059C0C11520E4D20708F0A9
:1006400051C0C11580E2D80708F4A0C09DC0C115F3
:1006500096E5D90718F5C11525E5D20708F07AC047
:10066000C11584E5D80708F070C09E0123703327B8
:100670008C2F86958695C115D34508F057C0C1E0EB
:10068000D0E002C0CC0FDD1F2A95E2F720E2829F66
:10069000C0011124C82BD92BDC6878C0C1152AE50C
:1006A000D20778F4C11589E5D80708F05DC0C115F7
:1006B00098E5D90708F468C0DC2FCC27C06FD06A52
:1006C00065C0CE0190568115904208F05DC08D2F17
:1006D0008F710E945E04DD27D0628F71D82B56C0C7
:1006E000D06554C0DF70D06A51C0CE0174E09695D9
:1006F00087957A95E1F783709C2F937021E030E025
:1007000002C0220F331F9A95E2F73C68382BCF7056
:10071000C695C69580E2C89FE0011124C22BD32B59
:1007200035C0DC2FCC27C16FD06A30C0C1E0D0E02B
:1007300002C0CC0FDD1F2A95E2F720E2829FC001A4
:100740001124C82BD92BDA6821C0DC2FCC27C46F29
:10075000D06A1CC08C2F0E945E048F71C82FD0E01D
:10076000DC2FCC27D06212C08C2F8F700E945E04C9
:1007700094E0D695C7959A95E1F7CF70D0E0DC2F3D
:10078000CC27D069C82B02C0C0E0D0E0CE01DF91F9
:10079000CF9108958238910569F1B0F481339105C4
:1007A00009F46DC048F48932910509F463C08A32B6
:1007B000910509F469C008958533910509F455C080
:1007C00089339105B9F00895833E910569F138F4B4
:1007D000803E9105B1F0823E910509F10895863E73
:1007E0009105A9F1873E9105B9F1843E910509F083
:1007F00064C023C02091E60120FD4FC021FD4DC003
:1008000008958091E60180FD44C08091E70180FF5A
:1008100044C08091E60184FD42C083EE4DC08091CA
:10082000E60182FF38C0F5CF8091E60182FD33C03A
:100830008091E70180FD31C0ECCF8091E70181FF1D
:1008400032C08091E60184FD2AC087EE35C08091D8
:10085000E60183FF26C0F5CF8091E60183FD21C02C
:100860008091E70181FD1FC0ECCF8091E60185FDFD
:100870001CC01DC08091E60185FD19C016C0809185
:10088000E60186FD16C017C08091E60186FD13C003
:1008900010C089E311C082EE0FC080EE0DC080E071
:1008A0000BC086EE09C084EE07C089E205C085E36F
:1008B00003C08AE201C081E390E008959091E601CF
:1008C00092FF0DC0282F2871283019F4877F84608B
:1008D00006C0282F2471243011F48B7F886093FF89
:1008E0000DC0282F2871283119F4877E846106C035
:1008F000282F2471243111F48B7E88612091E70127
:1009000020FF0DC0382F3871383019F4877F81608F
:1009100006C0382F3171313011F48E7F886021FF8D
:100920000DC0282F2871283119F4877E816106C0F7
:10093000282F2171213111F48E7E886194FD877EEC
:100940000895E82FF0E0E852FE4F80810895089561
:1009500080EA8A95F1F7089508950C94AC040C94FC
:10096000AD040C94AC04F894E82FE295EF70F0E03D
:1009700031A1282F2F7081E090E001C0880F2A95C7
:10098000EAF7982F9095932391A392A1892B82A3A4
:100990007894089508950F931F93CF93DF930E9447
:1009A00012068091000180910001811102C094E043
:1009B00001C090E09093E10184E0891B8093E00105
:1009C00084E90E94B30486E60E94B30487E90E948A
:1009D000B30486EC0E94B304CEE1D1E004E211E05E
:1009E00089910E94B3040C171D07D1F7E0EDF1E0E7
:1009F000A8EDB1E011921D9281E0E83DF807D1F732
:100A000084E00E94BC050E947302DF91CF911F9188
:100A10000F910C941C060E94F3058823F1F080913D
:100A2000E00190E088529E4F0E942F06811111C074
:100A300080912C018F5F80932C01863060F0E091D3
:100A4000E001F0E0E852FE4F108211821282138220
:100A500002C010922C010C947B028091E10190E085
:100A600088529E4F0E944A060C94CA048F929F920D
:100A7000AF92BF92CF92DF92EF92FF920F931F93AC
:100A8000CF93DF9384E2A82E81E0B82EC0EDD1E0B1
:100A900098E2E92E91E0F92E912C01E010E0650139
:100AA000F5018081F894E82FE295EF70F0E021A144
:100AB0008F70A80102C0440F551F8A95E2F7CA0142
:100AC000922F982B91A392A18095892382A3789449
:100AD0000E94A804EEE1F1E020E030E0812C419199
:100AE000A42FA295AF70B0E090968C9190E04F70DB
:100AF00002C0959587954A95E2F780FD07C0802F43
:100B0000022E01C0880F0A94EAF701C080E0882A0B
:100B10002F5F3F4F2630310511F75FEFA51AB50A59
:100B2000F60180810E94B3048881881619F08882BA
:100B300081E001C080E0982A2196EA14FB0409F0C4
:100B4000AECF6091E10170E068527E4F292D44E004
:100B500080ED91E00E94BD050E940B05892DDF917B
:100B6000CF911F910F91FF90EF90DF90CF90BF90AA
:100B7000AF909F908F9008950895FF920F931F93C9
:100B8000CF93DF938C01F62ED72FC42F222349F069
:100B900081E080932F010E94691590932E0180932C
:100BA0002D0180912F018823C1F080912D0190911A
:100BB0002E010E947515069780F0EF2DFD2FD801AC
:100BC0004C2F50E0CD01801B910B841795071CF42E
:100BD0008D918193F7CF10922F01DF91CF911F91CB
:100BE0000F91FF90089580913001811112C0809182
:100BF000D80080618093D8008AE18A95F1F700C01F
:100C00008091D90080FD02C082E001C081E0809324
:100C1000300181E090913001913009F080E0089539
:100C20000C94F3050E941006809300010E94F305C6
:100C300081110C94230608950E94F305811102C0CE
:100C40000C942906089561E070E081E091E00C9435
:100C5000D70861E070E081E091E00C94DE08CF936A
:100C6000DF93D82FC92F0E947609892B79F4ED2FB5
:100C7000FC2F80E090E0DC01AE5CBE4F2C91219314
:100C8000019684309105B9F781E001C080E0DF91E1
:100C9000CF91089520E030E0FC014191CF01F901AE
:100CA000EE5CFE4F40832F5F3F4F24303105A1F7AC
:100CB00008950F931F93CF93DF93C42FD22FFC017E
:100CC00082818823C9F0409338010E94691590936E
:100CD00037018093360180E28C0F883008F057C0CE
:100CE000C77081E001C0880FCA95EAF7DF91CF9104
:100CF0001F910F910C948F0B80913801481330C0D5
:100D000080913601909137010E947515883C9105BC
:100D100038F510E21D0FCD17B9F080E28C0F883046
:100D200040F4C77081E001C0880FCA95EAF70E94BD
:100D3000960B183028F581E09D2F977001C0880F21
:100D40009A95EAF70E948F0B802F0E947C0B183037
:100D5000F0F4D77081E001C0880FDA95EAF70AC095
:100D600080E28C0F883098F4C77081E001C0880F52
:100D7000CA95EAF7DF91CF911F910F910C94960BD2
:100D8000802FDF91CF911F910F910C947C0BDF91FD
:100D9000CF911F910F9108950F939C01CB01243F98
:100DA0004CE5340731F188F4293DFCE53F07D9F0E3
:100DB0002A3D4CE5340779F1283D3C45A9F506E28A
:100DC00021EE41EE68ED7CE52BC0263FFCE53F07B8
:100DD000E1F0A8F0273F3C4539F507E225EE46EE65
:100DE00067EF7CE51DC007E225EE45EE69ED7CE589
:100DF00017C006E221EE40EE64EF7CE511C007E289
:100E000025EE44EE65EF7CE50BC006E221EE42EEF6
:100E100066EF7CE505C008E221E045EE6AED7CE581
:100E20000E94590680E008C0FC018281882319F0E5
:100E30001092380101C081E00F910895CF93DF93A4
:100E4000EC01FB018281882309F41FC1C230FCE55B
:100E5000DF0708F41BC1C6319CE5D90738F09E01B5
:100E60002B5F3C452930310508F010C10E94F81372
:100E70009093E7018093E601C031ECE5DE0709F4C9
:100E8000C3C008F041C0C8308CE5D80709F49AC047
:100E9000F0F4C430ECE5DE0709F487C068F4C23032
:100EA0008CE5D80709F477C0C330DC4509F0E3C00E
:100EB0008091E601826076C0C630ECE5DE0709F479
:100EC0006EC008F07BC08091E60188606BC0CC30BA
:100ED0008CE5D80709F485C068F4CA30ECE5DE0774
:100EE00009F474C008F079C00E94F00D8091E60109
:100EF000806858C0CE308CE5D80709F476C008F079
:100F00007FC08091E6018BC0CC3FECE5DE0709F4A1
:100F10004FC018F5C3318CE5D80709F47DC078F4CB
:100F2000C131ECE5DE0709F473C0C231DC4509F0DC
:100F3000A2C00E94F00D8091E6018F7733C0C531C9
:100F40008CE5D80709F472C008F486C0CB3FDC45B5
:100F500009F091C08091E7013EC0C115FDE5DF07B2
:100F600009F45FC058F4CE3F9CE5D90709F444C0AA
:100F700008F43FC08091E70182602DC0C230FDE5DA
:100F8000DF0709F475C008F45DC0C330DD4509F022
:100F900072C080E06EC08091E601816003C08091E4
:100FA000E60180618093E60166C08091E60111C090
:100FB0008091E70182608093E7015DC08091E60146
:100FC0008062F0CF8091E6018064ECCF8091E601F1
:100FD00088608460E7CF8160EECF8091E6018E7FEC
:100FE000E1CF8091E6018D7FDDCF8091E601877FA3
:100FF000D9CF8091E70118C08091E7018D7FDBCFC9
:101000008091E6018F7ECECF8091E6018F7DCACFA1
:101010008091E6018F7BC6CF8091E601877F8B7F31
:10102000C1CF8091E7018D7F8E7FC5CF8091E60192
:1010300082FB222720F991E0922790FB82F990FB16
:1010400083F9B0CF8091E701982F909591708E7FB2
:10105000892B90FB81F9AFCF0E94F00D8091E601C2
:1010600087FB222720F991E0922790FB87F99ACFFE
:1010700081E00E948E148091E6019091E7010E9428
:1010800009140E94F00D80E001C081E0DF91CF9152
:101090000895CF93DF9386319C4541F5EB010E9483
:1010A0004113982F8A812091090130910A018823E8
:1010B00079F09A7A81E009F480E080933901911106
:1010C00002C069E201C065E3C9010E94D5140AC0EB
:1010D00080913901811102C069E201C065E3C90153
:1010E0000E94D7140E94821380E001C081E0DF914A
:1010F000CF9108958EE14A9B02C08150E1F74A9B4F
:10110000FECF08955A9880E28A95F1F75A9A089589
:10111000FC012AE02A95F1F728E090E080E031E038
:1011200040E14A95F1F7880F4A9B02C081609327FE
:1011300000C0000040E14A95F1F7215089F720E115
:101140002A95F1F729B100C0000030E13A95F1F796
:1011500022FB222720F992272081920F9083089565
:10116000EF92FF920F931F93CF93DF931F92CDB710
:10117000DEB719828C017C01E60EF11C0E151F05ED
:1011800051F00E947A08CE0101960E948808F80169
:1011900081938F01F3CF81E09981911180E00F90CD
:1011A000DF91CF911F910F91FF90EF900895909351
:1011B0003B0180933A01529A5A9A089590933B01C9
:1011C00080933A0152985A9AEA9AE9E6F0E08081CF
:1011D0008F7C80830895615091E001C0990F6A95DA
:1011E000EAF720E031E0992361F0492F482319F014
:1011F0005A9A232701C05A9840E24A95F1F79695EA
:10120000F2CF222311F05A9A01C05A9880E28A95AF
:10121000F1F75A980895FF920F931F93CF93DF939E
:10122000EC018C01060F111DC017D10741F0F99098
:101230000E94820868E08F2D0E94EB08F5CFDF91B5
:10124000CF911F910F91FF9008951F920F920FB6AB
:101250000F9211242F933F934F935F936F937F933C
:101260008F939F93AF93BF93CF93DF93EF93FF93AE
:101270005A98529AC0913A01D0913B016D816623F0
:1012800021F08E819F810E940B090E94820880E1DB
:101290008A95F1F75A9852985A9A80E18A95F1F70F
:1012A0006A81662351F08B819C810E94B008E8819D
:1012B000F981811104C082E003C0E881F98188E0EE
:1012C00080830E947A08FF91EF91DF91CF91BF91C7
:1012D000AF919F918F917F916F915F914F913F91CE
:1012E0002F910F900FBE0F901F901895CF93DF9303
:1012F000C0913A01D0913B01F894529A5A9885E0F6
:101300008A95F1F7000052985A9A80E28A95F1F78F
:101310004A9B0AC0529A5A9AE881F98181E08083F7
:10132000789481E090E02CC06D81662381F08E81FD
:101330009F810E94B00881110AC0529A5A9AE8818E
:10134000F98182E08083789482E090E019C00E9465
:101350007A0880E28A95F1F75A98529A80E18A9544
:10136000F1F76A81662321F08B819C810E940B0931
:101370000E948208E881F9811082789480E090E0F0
:10138000DF91CF910895909341018093400108959A
:10139000E0914001F0914101309721F00190F081FE
:1013A000E02D099480E00895E0914001F091410121
:1013B000309721F00280F381E02D09940895E091A7
:1013C0004001F0914101309739F022E0DC012C938B
:1013D0000480F581E02D0994089520913E0130911B
:1013E0003F012817390771F090933F0180933E0128
:1013F000E0914001F0914101309721F00680F781A2
:10140000E02D0994089520913C0130913D01281769
:10141000390771F090933D0180933C01E0914001C8
:10142000F0914101309721F00084F185E02D09947D
:10143000089585B7806885BF85B7806885BF0895A2
:101440000C94F30508950C94220A0C94220A0C942F
:10145000250A0C94220A0C94290A0C94220A0E9450
:10146000190A0E942D0A0C942B0A0E9460150E94F2
:10147000CB040E94BB150C94270AAF92BF92CF9267
:10148000DF92EF92FF920F931F93CF93DF93CDB72D
:10149000DEB72A970FB6F894DEBF0FBECDBF0E940D
:1014A000230A0E94220A0E9436050E94200A811106
:1014B00011C08FEF89838A831B820E946915816026
:1014C000782F9D838C8349815A816B818D810E9405
:1014D000D90A40C083E4A82E81E0B82E00E010E0D5
:1014E000C02E802F0E94A104E82EF501D1905F014B
:1014F000D82631F40F5F1F4F0830110589F7D9CF77
:101500008091B70181FD0E94A70480E0FF24F3943D
:101510009D2D9F21D1F08E83CF82EF2081E009F4B1
:1015200080E088870E9469158160782F9A87898773
:101530004E815F8168858A850E94D90AF801ED5B3A
:10154000FE4F8081F826F08205C08F5FFF0C863049
:10155000F9F6D0CF0E946A170E94C8099091420103
:101560008917B1F00E94C809809342012A960FB6EC
:10157000F894DEBF0FBECDBFDF91CF911F910F91C9
:10158000FF90EF90DF90CF90BF90AF900C94D1027E
:101590002A960FB6F894DEBF0FBECDBFDF91CF9174
:1015A0001F910F91FF90EF90DF90CF90BF90AF9081
:1015B0000895CF93DF93CDB7DEB72B970FB6F8948E
:1015C000DEBF0FBECDBF4F83588769877A878B8771
:1015D000DE01119686E0FD0111928A95E9F785E01A
:1015E000FE01379601900D928A95E1F749815A8163
:1015F0006B817C818D819E810E94A9102B960FB6F4
:10160000F894DEBF0FBECDBFDF91CF910895FC01EE
:10161000808191810E9402130895CF938823B1F1B4
:10162000C82F8CEF8C0F813AD0F46C2F8091090178
:1016300090910A010E949F14882349F06C2F809199
:10164000090190910A010E94D7140E9482136C2F05
:101650008091090190910A010E94D5140CC080E28A
:101660008C0F883058F4C77081E001C0880FCA958C
:10167000EAF70E944413CF910C948213C03F30F0DC
:101680008C2F0E945F16CF910C944C17CF91089528
:10169000882389F19CEF980F913A40F4682F80914C
:1016A000090190910A010E94D7140DC090E2980F91
:1016B000983058F4877091E001C0990F8A95EAF745
:1016C000892F0E944A130C9482139BE5980F933044
:1016D00020F480E090E00C94ED0998E5980F9731A4
:1016E00020F480E090E00C94030A803F20F00E94F8
:1016F000C7160C944C170895CF93C82F0E940D0B5A
:10170000C93349F42FEF87EE93E021508040904099
:10171000E1F700C000008C2FCF910C94480B882378
:1017200021F00E9444130C9482130895882321F021
:101730000E944A130C9482130895CF92DF92EF9285
:10174000FF920F931F93CF93DF937C01D62FC72F68
:10175000FC01058102950F70128111110E94611325
:101760000E943A13882399F0112389F08C2F807FEF
:10177000803421F080E28D0F883048F082E00E94B2
:10178000CC130E943A1391E0D82ED92601C0D12C57
:10179000CC2EC2948FE0C8228C2D90E08C30910525
:1017A00008F098C1FC01EA5AFF4F0C941D1F8C2FC2
:1017B000807FCF70882311F0C295C07F112399F0EC
:1017C000CC2309F473C180E28D0F883010F0D11161
:1017D00004C08C2F0E94441303C08C2F0E9454130A
:1017E0000E94821363C18D2F0E94480BCC2309F401
:1017F00071C180E28D0F883010F0D11104C08C2FA0
:101800000E944A1303C08C2F0E945A130E94821315
:1018100061C18C2F807FCF70803211F0C295C07F64
:10182000DD2319F0D130C9F022C0112371F000235B
:1018300041F0013031F40E9467138C2B0E946F132A
:1018400049C10E9467138C2B1DC0002319F0013081
:1018500009F440C10E94781325C0112321F00630FD
:1018600008F038C10EC0053008F034C11BC0112388
:1018700061F0002331F0F701858180FF17C18F707F
:1018800085838C2F0E948F0B25C1002359F0D933FB
:1018900009F01DC1FFEF07EE13E0F15000401040CA
:1018A000E1F713C18C2F0E94960B14C18D2F1123C9
:1018B00019F00E945F1602C00E94C7160E944C17C2
:1018C00011C18C2F837009F047C0111107C12D2F52
:1018D000229526952770220F220F6D2F6F70862F6D
:1018E00090E0A0E0B0E0022E04C0880F991FAA1F6C
:1018F000BB1F0A94D2F7D4FF10C04FE050E060E065
:1019000070E004C0440F551F661F771F2A95D2F759
:10191000409550956095709503C040E050E0BA0145
:10192000C695C695C3708A019B01082B192B2A2BDB
:101930003B2BC901B801C23049F058F4C13019F04D
:101940000E947D11CBC00E946B11C8C00E948F11F4
:10195000C5C00E946911C2C0112319F08C2F81707B
:1019600001C08695882309F4B9C02D2F22952695AC
:101970002770220F220F6D2F6F70862F90E0A0E04E
:10198000B0E0022E04C0880F991FAA1FBB1F0A9443
:10199000D2F7D4FF10C04FE050E060E070E004C028
:1019A000440F551F661F771F2A95D2F74095509513
:1019B0006095709503C040E050E0BA01C695C695A9
:1019C000C3708A019B01082B192B2A2B3B2BC901C1
:1019D000B801C23049F058F4C13019F00E944212E7
:1019E0007DC00E9430127AC00E94541277C00E94BB
:1019F000A31174C0CF70112339F08C2F0E94C9112C
:101A00008D2F0E948F0B6AC08D2F0E94960B8C2FFA
:101A10000E94EA1163C0D23F01F128F4D03F41F0A7
:101A2000D13FA1F03FC0D33FF9F0D43F39F13AC0E4
:101A3000112341F0053008F04DC08C2F8F710E94AA
:101A40000F1248C0063008F045C0F7CF112339F017
:101A50008C2F8F710E94C9113DC01123C9F38C2FA7
:101A60008F710E94EA1136C0112329F08C2F8F71DB
:101A70000E94B4112FC00E94AF112CC0112349F055
:101A8000CF718C2F0E94C91163E08C2F0E94B71375
:101A900021C081E00E94CC130230E0F082E00E947D
:101AA000CC1318C0112331F0002391F28D2F0E9426
:101AB0000D0B10C0002399F2D93349F41FEF27EE24
:101AC00033E0115020403040E1F700C000008D2F7E
:101AD0000E94480B88EF8C0D843020F40E94C809C6
:101AE0000E94D102DD20C9F00E94361380FD15C08E
:101AF000F70112820E9430130E94C911C7010E948F
:101B0000AE0D0E943013DF91CF911F910F91FF9086
:101B1000EF90DF90CF900C94EA11DF91CF911F915D
:101B20000F91FF90EF90DF90CF9008950F931F9348
:101B3000CF93DF93EC01688179818A810E940D1334
:101B40008C010E9466120E945711B801CE010E94BA
:101B50009D0BDF91CF911F910F910895CF93DF934C
:101B6000EC01988189812B813C81232B31F08F3FBF
:101B700031F481E09F3F19F403C081E001C080E0AF
:101B800080FD19C0CE010E948D0281110CC00E94FF
:101B90003A13882381F08A81882369F082E0DF91FB
:101BA000CF910C94CC13CE010E94960DCE01DF9103
:101BB000CF910C946802DF91CF9108950E94611338
:101BC0000E9464130E9482130E947D180C944C178B
:101BD0008091090190910A010E94D9140C94DE0DA4
:101BE0000E9451130C94E80DE92FE295EF704E2FEF
:101BF00050E0FA013297EE30F105B0F4EE59FF4FA4
:101C00000C941D1F803F91F018F4883E68F40EC0BC
:101C1000843F51F40BC0883E48F0813F29F406C050
:101C200093FB882780F9089580E0089581E0089566
:101C30000E9402130E94F40D0895CF93DF9300D009
:101C400000D01F92CDB7DEB70F900F900F900F907E
:101C50000F90DF91CF910895CF93DF9300D000D004
:101C600000D0CDB7DEB726960FB6F894DEBF0FBE14
:101C7000CDBFDF91CF9108951F93CF93DF93C09194
:101C80004C0116E080914D01C81799F0D0E01C9FDF
:101C9000F0011D9FF00D1124E25BFE4F4081518148
:101CA00062817381848195810E942C0E2196C77078
:101CB000E9CFDF91CF911F91089540917E0150911E
:101CC0007F016091800170918101809182019091EA
:101CD00083010C942C0E0F931F93CF93DF9380916D
:101CE000830182958F7009F05DC080918001882307
:101CF00009F458C080914C0110914D0160917E0112
:101D000070917F01C0918101D091820191E06F3F7C
:101D100009F090E0292F06E0811709F443C02097CD
:101D200021F07F3F21F030E003C031E001C0322FCD
:101D300090E030FD34C0089FF001099FF00D1124A0
:101D4000DF01A25BBE4F11963C911197371327C05C
:101D50003C91361324C012963C91129731111FC04A
:101D600013964D915C9114974C1B5D0B483C5105AB
:101D7000B0F4809183018F70806180938301ED5A6C
:101D8000FE4F80818F70806180838EE791E00E949A
:101D9000AE0DDF91CF911F910F910C943C0E0196E7
:101DA0008770BACFDF91CF911F910F9108959F92C5
:101DB000AF92BF92CF92DF92EF92FF920F931F9359
:101DC000CF93DF93CDB7DEB761970FB6F894DEBF40
:101DD0000FBECDBF8C0185E0F801DE011D9601909C
:101DE0000D928A95E1F7F80140815181E28090914E
:101DF0007E0160917F012091810130918201211546
:101E0000310531F06F3F31F481E09F3F19F403C099
:101E100081E001C080E0F82FF1709F2E80FD46C167
:101E2000F801A380B4808EE7C82E81E0D82EF09010
:101E30008001F501E21BF30BFF2009F4DFC0809164
:101E40008301E83CF10508F09BC0282F207F09F0B2
:101E500052C0561313C0491311C0FE2CE1100EC01E
:101E60008F708061809383010E945D0EC6010E9485
:101E7000AE0D80918301F801858358C1AB2831F004
:101E80005F3F31F481E04F3F19F403C081E001C0AE
:101E900080E080FD03C081E08E2502C080E090E0FC
:101EA000F82FF170FF2E80FF1CC080914C01209113
:101EB0004D0136E0821709F417C190E0389FF00118
:101EC000399FF00D1124E25BFE4F6181561306C06D
:101ED0006081461303C06281E61203C001968770D9
:101EE000E9CFFE2CEE2009F421C1809183018160AD
:101EF000809383015AC0561306C0491304C0E110F1
:101F000002C0F8019FC04D875E878D859E850E9427
:101F1000180E882379F1EE2069F120918301822F38
:101F200082958F7090E0029774F080917E0190917D
:101F30007F0198878F831986BB86AA862C87CE015E
:101F400007960E94AE0D86E0F801AEE7B1E0019081
:101F50000D928A95E1F70E946B0E0E945D0E0DC0F6
:101F6000561729F14D875E878D859E850E94180E34
:101F700081112CC0C8010E94AE0DFF24F394D6C07D
:101F8000282F207F69F77A2DB98AA88A6E2D898932
:101F90000E941D0E8EE791E00E94AE0D86E0F601D4
:101FA00011928A95E9F70E945D0EF12CBFC049138A
:101FB000D9CFE110D7CFF8018583C8010E94AE0DBB
:101FC00086E0F60111928A95E9F7B0C0EE2091F211
:101FD00020918301822F82958F7090E002970CF4FC
:101FE000B2CF80917E0190917F019A8389831B8279
:101FF000BD82AC822E83CE010196A3CFE83CF105D1
:1020000008F047C0FE2CEE2009F4B4CF561330C0C0
:1020100049132EC02091830120FD21C0822F82957B
:102020008F70482F50E041155105C9F0F801258304
:102030004F30510541F08F5F982F9295907F822FFE
:102040008F70892B8583C8010E94AE0D86E0F80150
:10205000AEE7B1E001900D928A95E1F742C086E0CB
:10206000F801AEE7B1E001900D928A95E1F75EC00C
:102070004D875E878D859E850E94180E811163CFE6
:1020800080918301816080938301C8010E94AE0D1D
:102090004DC07A2DB98AA88A6E2D89890E941D0E9D
:1020A00086E0F60111928A95E9F71BC0EE2009F44B
:1020B00061CF4D875E878D859E850E94180EF82E14
:1020C000882309F457CF86E0F801AEE7B1E001902C
:1020D0000D928A95E1F78EE791E00E94070B0E942E
:1020E0006B0E0E945D0E22C04D875E878D859E859A
:1020F0000E940213292F22952F70223028F49F70FE
:1021000039F0811105C00BC0243028F49F7049F4C8
:10211000805E883020F0C8010E94AE0D9F2CF92C03
:1021200005C0F8019581907F99F7F9CF8F2D6196C1
:102130000FB6F894DEBF0FBECDBFDF91CF911F91D8
:102140000F91FF90EF90DF90CF90BF90AF909F9056
:1021500008951F93CF93DF93CDB7DEB72C970FB6BB
:10216000F894DEBF0FBECDBF4F83588769877A874B
:102170008B879C87CE0107960E94D70E8823D1F0CB
:102180009F8188852A853B85232B31F08F3F31F451
:1021900081E09F3F19F403C081E001C080E080FD31
:1021A00047C04F81588569857A858B859C850E94BB
:1021B0002C0E3EC086E0FE013796DE01119601909E
:1021C0000D928A95E1F7FF81E8856A857B85611527
:1021D000710531F0EF3F31F481E0FF3F19F403C0A6
:1021E00081E001C080E080FD23C020914D0130E0FE
:1021F000C90101968770992740914C0150E08417DE
:102200009507F1F1F983EA837D836C8396E0929FD1
:10221000D001939FB00D1124A25BBE4FFE013196F9
:1022200001900D929A95E1F780934D010E943C0E2A
:1022300016E080914C0190914D01891771F1189F22
:10224000C0011124825B9E4F0E94D70E882329F182
:10225000E0914C011E9FF0011124E25BFE4F408192
:10226000518162817381848195810E942C0E8091BD
:102270004C0190E001968770992780934C01D9CF4B
:102280000E94F00D10924D0110924C01EEE7F1E02A
:1022900086E0DF011D928A95E9F72C960FB6F89437
:1022A000DEBF0FBECDBFDF91CF911F91089508957E
:1022B00008950C9458110C9459110E945B1160936D
:1022C000A6017093A7018093A8019093A9010C9493
:1022D000DE0D0C945D110F931F930091A6011091D8
:1022E000A7012091A8013091A901602B712B822BAD
:1022F000932B1F910F910C945D110F931F930091DD
:10230000A6011091A7012091A8013091A901602395
:102310007123822393231F910F910C945D110F93CE
:102320001F930091A6011091A7012091A80130915F
:10233000A90160277127822793271F910F910C9481
:102340005D110C9458110E94A1116093A201709329
:10235000A3018093A4019093A5010C94DE0D60E08D
:1023600070E0CB010C94A3110F931F9341E050E058
:1023700060E070E08A019B0104C0000F111F221F62
:10238000331F8A95D2F7C901B8011F910F910C94A0
:10239000A3110F931F9341E050E060E070E004C090
:1023A000440F551F661F771F8A95D2F78091A201AF
:1023B0009091A301A091A401B091A5018A019B0174
:1023C000082B192B2A2B3B2BC901B8011F910F9108
:1023D0000C94A3110F931F9341E050E060E070E074
:1023E00004C0440F551F661F771F8A95D2F740958A
:1023F0005095609570958091A2019091A301A09154
:10240000A401B091A5018A019B01082319232A2365
:102410003B23C901B8011F910F910C94A3110F9395
:102420001F9341E050E060E070E004C0440F551F8E
:10243000661F771F8A95D2F78091A2019091A30120
:10244000A091A401B091A5018A019B010827192739
:102450002A273B27C901B8011F910F910C94A311A2
:102460000F931F930091A2011091A3012091A40149
:102470003091A501602B712B822B932B1F910F9113
:102480000C94A3110F931F930091A2011091A3012B
:102490002091A4013091A50160237123822393230D
:1024A0001F910F910C94A3110F931F930091A20100
:1024B0001091A3012091A4013091A50160277127FB
:1024C000822793271F910F910C94A3110895292F10
:1024D000220F920F990F890FE82FE695E695E69562
:1024E000877051E001C0550F8A95EAF785E0E89FB3
:1024F000F0011124EC57FE4F20E030E070E0408105
:10250000CB01022E02C0969587950A94E2F781705E
:10251000819584278523842781932F5F3F4F253022
:10252000310569F70895292F220F920F990F890F0E
:10253000682F669566956695982F977085E0689FD9
:10254000B001112440E050E080E0FB01E40FF51FF2
:10255000EC57FE4F208130E0092E02C036952795BA
:102560000A94E2F721703327042E01C0220F0A9447
:10257000EAF7822B4F5F5F4F4530510531F70895E1
:10258000BF92CF92DF92EF92FF920F931F93CF9360
:10259000DF938C01C090A201D090A301E090A40130
:1025A000F090A5018091A6019091A701A091A801AA
:1025B000B091A901C82AD92AEA2AFB2ACFE1D0E0A2
:1025C000D701C6010C2E04C0B695A795979587959F
:1025D0000A94D2F780FD04C0219790F7B12C07C070
:1025E000BC2EB8018C2F0E94ED020197A9F38B2D10
:1025F000DF91CF911F910F91FF90EF90DF90CF90DF
:10260000BF900895CF93DF93EC010E94C012BE01EA
:102610000E94ED02DF91CF9108951F93CF93DF9336
:10262000EB0190914B01992321F0CB010E94021301
:1026300013C0882349F0CB010E94C012182F682FC5
:10264000CE010E94671204C0CB010E949312182F82
:10265000BE01812F0E94ED02DF91CF911F9108955D
:102660008091AA0185958595859508958091AA0107
:10267000877008959091AA01977081E009F480E035
:1026800008958091B60108959091B601892B8093A9
:10269000B601089580959091B60189238093B60183
:1026A00008951092B60108959091B501892B8093F9
:1026B000B501089580959091B50189238093B50166
:1026C00008951092B50108951092B4010895809173
:1026D000AB01089508950C946A130C946B139091B8
:1026E000AB01981721F08093AB010C946D13089502
:1026F0008091AB01882329F01092AB0180E00C940B
:102700006D130895E0910901F0910A018091B601DD
:102710008083E0910901F0910A0190818091B501D7
:10272000892B8083E0910901F0910A0190818091C9
:10273000B401892B80838091AB01882381F0E091E3
:102740000901F0910A019081892B80838091090110
:1027500090910A010E94931481110E947813809134
:10276000090190910A010C94D4090C946A1398E021
:10277000899F90011124262B2093AA010E94C91140
:102780008091AA018595859585950C94B513109235
:10279000AA0180E00C94B5132091AA0180958223B0
:1027A0008093AA01982F977079F430E0482F082E73
:1027B000000C550B2417350739F0859585958595BF
:1027C0000E94EA110C94C713089580E090E00E94E3
:1027D0003F1F21E08C3E9E4F09F020E0822F08959C
:1027E00082E090E00C94371F83E090E00C94371F58
:1027F000CF9384E090E00E94371FC82F81E290E0E1
:102800000E94371F2C2F30E0A901582BCA01CF910D
:102810000895CF93C92F682F84E090E00E94451F50
:102820006C2F81E290E0CF910C94451FAB01BC016D
:102830008FE090E00C94571FAB01BC0183E190E066
:102840000C94571F60E070E0CB010C941C1460E006
:1028500070E0CB010E9416140C9422146CEE7EEFF3
:1028600080E090E00E94631F60E082E090E00E94C0
:10287000451F60E083E090E00E94451F1092A60192
:102880001092A7011092A8011092A90160E084E0C3
:1028900090E00E94451F60E081E290E00E94451FA9
:1028A00060E085E090E00E94451F60E086E090E0F7
:1028B0000E94451F6FEF87E090E00E94451F40E0B7
:1028C00050E0BA0188E090E00E94571F60E08DE080
:1028D00090E00E94451F40E050E0BA0188E190E09E
:1028E0000E94571F60E087E190E00E94451F40E092
:1028F00050E0BA018CE190E00E94571F60E080E256
:1029000090E00E94451F40E050E0BA0188E190E06D
:102910000E94571F0C9427140C942E14682F8EE0DD
:1029200090E00C94451FFC01329697E080E09150B6
:1029300029F021912223D9F38F5FF9CF08956623DF
:1029400049F0FC01329608962191621729F0E817A8
:10295000F907D1F780E0089581E008959C01FC011A
:1029600032969FEF80E04191461789F09F3F19F41E
:10297000411101C0982F8F5F8630A9F79F3F39F032
:10298000F901E90FF11D97FDFA9562830895089505
:102990009C012A5F3F4FFC014281461301C0128215
:1029A000019682179307B9F708950C94AE140C940E
:1029B000C814029626E0FC0111922A95E9F70895C1
:1029C00008950C94E0140C94E014CF930E94E31447
:1029D0000E9436050E94E114C0E08C2F0E94A104E1
:1029E000811104C0CF5FC830C1F701C081E0CF9131
:1029F00008950C94E0140C94F9140E94FB14809137
:102A0000EC01843049F11092B80120E488E190E0B3
:102A10000FB6F894A895809360000FBE20936000D5
:102A200080E00E94D1020E94FB1483B7817F846002
:102A300083BF83B7816083BF7894889583B78E7F87
:102A400083BF0FB6F894A895809160008861809349
:102A50006000109260000FBE08950C94E0140E9474
:102A6000F00D0E94C8090E94D1020C942D151F92EE
:102A70000F920FB60F9211248F939F93AF93BF9332
:102A80008091B801811113C08091E2019091E3011E
:102A9000A091E401B091E5014196A11DB11D809383
:102AA000E2019093E301A093E401B093E501BF91AB
:102AB000AF919F918F910F900FBE0F901F9018951F
:102AC00082E084BD93E095BD9AEF97BD80936E0040
:102AD00008952FB7F8948091E2019091E301A091BD
:102AE000E401B091E5012FBF08959C014FB7F89420
:102AF0008091E2019091E301A091E401B091E501A0
:102B00004FBF821B930B089578941F920F920FB6BC
:102B10000F9211248F939F93AF93BF938091E20103
:102B20009091E301A091E401B091E5010196A11D0E
:102B3000B11D8093E2019093E301A093E401B0936F
:102B4000E501BF91AF919F918F910F900FBE0F90B4
:102B50001F90189587E797E79093010880930008E6
:102B60009AE088E10FB6F894A895809360000FBEB4
:102B700090936000FFCF0E94E513811102C00E9474
:102B80008C140E94F0138093B7010E94F813909365
:102B9000E7018093E6010E94F413682F70E080E063
:102BA00090E00E9469116091A2017091A30180914F
:102BB000A4019091A5010C94A1118091BF0180FF07
:102BC0000BC06091100185E0689FB00111247595DC
:102BD0006795759567952BC081FF09C060911001BD
:102BE00085E0689FB00111247595679520C082FF2C
:102BF00007C06091100185E0689FB001112417C0E3
:102C00009091BE019923D1F060910F01961788F73A
:102C10002091100185E0289F90011124929FA0012E
:102C2000939F500D112470E0CA010E94091F603863
:102C3000710540F46115710519F406C065E070E096
:102C4000862F08958FE7089581E008958091BF0150
:102C500080FF08C060910C0170E0759567957595CF
:102C6000679521C081FF06C060910C0170E07595E9
:102C7000679519C082FF04C060910C0170E010C01C
:102C80009091BD01992399F060910B019617A0F7DF
:102C900080910C01899FC001112470E00E94091FDE
:102CA0006038710540F46115710519F406C061E0E2
:102CB00070E0862F08958FE7089581E00895803FA2
:102CC00021F40E94DD15819504C0813F29F40E9402
:102CD000DD158093C3010895823F21F40E94DD1524
:102CE000819504C0833F29F40E94DD158093C201C1
:102CF0000895893F19F40E94261605C08A3F31F4D1
:102D00000E94261681958093C40108958B3F21F47B
:102D10000E942616819504C08C3F29F40E94261635
:102D20008093C5010895843F21F48091C1018160A1
:102D300017C0853F21F48091C101826011C0863F98
:102D400021F48091C10184600BC0873F21F4809100
:102D5000C101886005C0883F31F48091C101806164
:102D60008093C10108958D3F21F48091BF0181605E
:102D70000BC08E3F21F48091BF01826005C08F3F60
:102D800029F48091BF0184608093BF010895803F42
:102D900039F48091C30187FF6AC01092C30167C0F4
:102DA000813F29F48091C3011816BCF360C0909153
:102DB000C201823F29F497FF5AC01092C20157C046
:102DC000833F19F41916CCF352C09091C401893F86
:102DD00031F419160CF04BC01092C40148C08A3F60
:102DE00019F497FF44C0F8CF8B3F39F48091C501A7
:102DF00087FF3DC01092C5013AC08C3F29F48091F5
:102E0000C5011816BCF333C0843F21F48091C10181
:102E10008E7F17C0853F21F48091C1018D7F11C045
:102E2000863F21F48091C1018B7F0BC0873F21F445
:102E30008091C101877F05C0883F31F48091C10135
:102E40008F7E8093C10113C08D3F21F48091BF011B
:102E50008E7F0BC08E3F21F48091BF018D7F05C016
:102E60008F3F29F48091BF018B7F8093BF018091B8
:102E7000C201811106C08091C301811102C010926C
:102E8000BE018091C401811106C08091C5018111EC
:102E900002C01092BD0108950E9469152091C201DF
:102EA000211104C02091C301222321F09093BC0181
:102EB0008093BB012091C401211104C02091C50160
:102EC000222321F09093BA018093B90180EC91E024
:102ED0000C94DF09EF92FF920F931F93CF93DF9330
:102EE00000D000D000D0CDB7DEB786E0E0ECF1E056
:102EF000DE01119601900D928A95E1F7E090C201F2
:102F0000F090C3010091C4011091C5011092C2015B
:102F10001092C3011092C4011092C501E11003C0C8
:102F2000FF2009F45DC08091BB019091BC010E941B
:102F30007515AC019091BE01992339F020911101D2
:102F400030E02417350758F04BC0209112018AE079
:102F5000289F900111242417350718F041C09F3F86
:102F600019F09F5F9093BE01EE2061F00E94DD1585
:102F70001E1414F09FEF01C091E0989F902D112432
:102F80009093C201FF2061F00E94DD151F1414F020
:102F90009FEF01C091E0989F902D11249093C30161
:102FA0003091C2013323E1F02091C3012223C1F00B
:102FB00045EB3403C0011124992319F09093C20109
:102FC00003C081E08093C20135EB2303C0011124CB
:102FD000992319F09093C30103C081E08093C3014A
:102FE000011103C0112309F45DC08091B9019091D2
:102FF000BA010E947515AC019091BD01992339F079
:1030000020910D0130E02417350758F04BC0209176
:103010000E018AE0289F900111242417350718F02B
:1030200041C09F3F19F09F5F9093BD01002361F065
:103030000E942616101614F09FEF01C091E0989F91
:10304000902D11249093C401112361F00E94261643
:10305000111614F09FEF01C091E0989F902D11245C
:103060009093C5013091C4013323E1F02091C50153
:103070002223C1F045EB3403C0011124992319F038
:103080009093C40103C081E08093C40135EB230316
:10309000C0011124992319F09093C50103C081E068
:1030A0008093C5018091C20181110BC08091C30141
:1030B000811107C08091C401811103C08091C501B5
:1030C00081110E944C17EB82FC820D831E8386E0E7
:1030D000FE013196A0ECB1E001900D928A95E1F7E6
:1030E00026960FB6F894DEBF0FBECDBFDF91CF910D
:1030F0001F910F91FF90EF900895E0ECF1E086E0D2
:10310000DF011D928A95E9F71092BE011092BD0170
:103110001092BF0108958091CE010895089522E094
:103120002093E9002FEF3091E800215035FD06C0D3
:1031300035ED3A95F1F700002111F5CF2091E80027
:1031400025FF0BC040E050E066E070E00E946B1A83
:103150008091E8008E778093E8000895CF93DF9305
:1031600021E02093E9002FEF3091E800215035FD58
:1031700006C035ED3A95F1F700002111F5CF209109
:10318000E80025FF14C0EC0140E050E068E070E08A
:103190000E946B1A8091E8008E778093E80088E0A7
:1031A000FE01A6ECB1E001900D928A95E1F7DF9166
:1031B000CF91089508958091EB01811109C00E947B
:1031C000FC1B0E94591C8091E20084608093E20005
:1031D00008951092EB010895089508950C942F1509
:1031E00042E061EC81E00E94751B42E261EC82E00A
:1031F0000C94751B8091EE01833009F460C030F4AB
:10320000813071F0823009F499C008958A3009F450
:1032100085C08B3009F46BC0893009F0A7C020C08D
:103220008091ED01813A09F0A1C08091E800877F8B
:103230008093E8008091F1019091F201892B21F4B3
:1032400068E086EC91E003C060E080E090E070E030
:103250000E94B61A8091E8008B778093E800089569
:103260008091ED01813209F081C08091F10190914E
:10327000F201029708F07AC08091E800877F80937E
:10328000E8008091E80082FD05C08091EC01811189
:10329000F8CF6CC02091F3008091F20090E0922B67
:1032A000029729F48091F1008B7F813021F4809185
:1032B000F1008093CE018091E8008B7753C080911C
:1032C000ED01813A09F052C08091F1019091F20133
:1032D000892B09F04BC08091E800877F8093E8003C
:1032E0008091E80080FFFCCF80911D0136C0809165
:1032F000ED018132D9F58091F1019091F201892B94
:10330000A9F58091E800877F8093E8000E94AA1BBE
:103310008091EF0180931D010C94F00D8091ED01DF
:10332000813221F58091E800877F8093E8000E9438
:10333000AA1B8091F0018093CF0108958091ED0147
:10334000813AA1F48091E800877F8093E800809122
:10335000E80080FFFCCF8091CF018093F100809145
:10336000E8008E778093E8000C94AA1B089584B738
:10337000877F84BF0FB6F894A8958091600088611C
:1033800080936000109260000FBE90E080E80FB65E
:10339000F89480936100909361000FBE0E942F0A01
:1033A0000E94FC1B0E94591C8091E2008460809363
:1033B000E20078940E94EE1E0E94350A83E191E0BB
:1033C0000E94C3098091EC01853069F40E94FD14CC
:1033D0008091EA018823B1F30E94E514882391F3D8
:1033E0000E94551AEFCF0E943D0A0E94230A0E94B4
:1033F000220AE8CF0C94FC19292F332723303105FA
:10340000C9F060F42130310581F02230310509F036
:1034100044C08BE390E024ED32E043C0213231051B
:10342000E1F02232310549F138C082E190E02FE02D
:1034300033E037C099278130910549F028F0029791
:1034400061F5E4E7F2E005C0E0EDF2E002C0EEEB8A
:10345000F2E0849190E09F0124C06115710541F074
:1034600061307105D1F489E090E02FEF32E019C0AE
:1034700089E090E026EE32E014C06115710541F05C
:103480006130710551F48FE490E021E233E009C02E
:1034900080E490E020E733E004C080E090E020E0AA
:1034A00030E0FA0131832083089580E189BD82E113
:1034B00089BD09B400FEFDCF8091D8008F7D809337
:1034C000D8008091E00082608093E0008091E0006D
:1034D00081FDFCCF0895CF92DF92EF92FF920F9380
:1034E0001F93CF93DF93EC018B017A010E94C91BDC
:1034F000811133C0E114F10439F0F7018081918129
:10350000081B190BC80FD91FC12CD12C011511058F
:1035100019F18091E80085FD16C08091E8008E7752
:103520008093E800E114F10449F0F7018081918172
:10353000C80ED91ED182C08285E00FC00E94C91B6F
:10354000882321F30AC089918093F1000150110969
:10355000FFEFCF1ADF0ADACF80E0DF91CF911F9122
:103560000F91FF90EF90DF90CF9008952091F3019D
:103570003091F4012617370748F06115710539F4C9
:103580002091E8002E772093E80001C0B901FC01EA
:1035900020E06115710579F18091EC018823F1F14A
:1035A0008530F1F18091E80083FD3CC08091E80016
:1035B00082FD2EC08091E80080FFEBCF2091F300C8
:1035C0008091F20090E0922B6115710551F08830E6
:1035D000910538F421912093F10061507109019611
:1035E000F3CF21E0089709F020E08091E8008E7782
:1035F0008093E800CECF2111CFCF0AC08091EC019B
:10360000882361F0853061F08091E80083FD0AC075
:103610008091E80082FFF2CF80E0089582E0089573
:1036200083E0089581E008952091F3013091F40141
:103630002617370748F06115710539F42091E80025
:103640002E772093E80001C0B901FC0120E061154C
:10365000710591F18091EC01882309F440C0853017
:1036600009F43FC08091E80083FD3DC08091E800EF
:1036700082FD2FC08091E80080FFE9CF2091F30008
:103680008091F20090E0922B6115710559F088301D
:10369000910540F424912093F10031966150710915
:1036A0000196F2CF21E0089709F020E08091E80030
:1036B0008E778093E800CBCF2111CCCF0AC08091C8
:1036C000EC01882361F0853061F08091E80083FD92
:1036D0000AC08091E80082FFF2CF80E0089582E086
:1036E000089583E0089581E00895982F973068F554
:1036F0009093E900981739F07091EC002091ED005B
:103700005091F00003C0242F762F50E021FD02C01D
:103710009F5FECCF3091EB003E7F3093EB00309118
:10372000ED003D7F3093ED003091EB003160309340
:10373000EB007093EC002093ED005093F00020918B
:10374000EE0027FDE5CF80E008958F708093E900BB
:1037500081E008958091ED0187FF11C08091E8001C
:1037600082FD05C08091EC018111F8CF11C08091DC
:10377000E8008B770BC08091EC01882349F08091A1
:10378000E80080FFF8CF8091E8008E778093E80012
:1037900008952091E4003091E50095E64091EC0019
:1037A000842F817040FF23C08091E80080FD1DC000
:1037B0008091EC01882399F0853099F08091EB009D
:1037C00085FD11C04091E4005091E50024173507B4
:1037D00029F3915011F09A01E1CF84E0089582E03D
:1037E000089583E0089581E0089580E00895409170
:1037F000E80042FFDDCF08950E946A1C0E94721CFF
:10380000E0EEF0E0808181608083E8EDF0E080818F
:103810008F77808319BCA7EDB0E08C918E7F8C935D
:1038200080818F7E80831092EB0108950F931F9308
:10383000CF93DF930E946A1C0E94721CC8EDD0E0F7
:1038400088818F77888388818068888388818F7D4D
:10385000888319BC1092EC011092E8011092EA01E1
:103860001092E90100EE10E0F80180818B7F8083E7
:1038700088818160888342E060E080E00E94751B5F
:10388000E1EEF0E080818E7F8083E2EEF0E08081E7
:1038900081608083808188608083F80180818E7F51
:1038A0008083888180618883DF91CF911F910F9100
:1038B0000895E8EDF0E080818F7E8083E7EDF0E011
:1038C00080818160808384E082BF81E08093EB010E
:1038D0000C94161CE8EDF0E080818E7F80831092BE
:1038E000E20008951092DA001092E10008951F920C
:1038F0000F920FB60F9211242F933F934F935F9324
:103900006F937F938F939F93AF93BF93EF93FF93A7
:103910008091E10082FF0BC08091E20082FF07C02E
:103920008091E1008B7F8093E1000E94ED1E8091E9
:10393000DA0080FF1FC08091D80080FF1BC08091FB
:10394000DA008E7F8093DA008091D90080FF0DC06D
:1039500080E189BD82E189BD09B400FEFDCF81E02F
:103960008093EC010E94DB1805C019BC1092EC0199
:103970000E94E9188091E10080FF19C08091E20067
:1039800080FF15C08091E2008E7F8093E2008091DD
:10399000E20080618093E2008091D8008062809391
:1039A000D80019BC85E08093EC010E94ED1880914D
:1039B000E10084FF30C08091E20084FF2CC080E1F0
:1039C00089BD82E189BD09B400FEFDCF8091D80098
:1039D0008F7D8093D8008091E1008F7E8093E100FD
:1039E0008091E2008F7E8093E2008091E20081600E
:1039F0008093E2008091E801882311F084E007C001
:103A00008091E30087FD02C081E001C083E08093E4
:103A1000EC010E94EE188091E10083FF29C08091A3
:103A2000E20083FF25C08091E100877F8093E10061
:103A300082E08093EC011092E8018091E1008E7F9A
:103A40008093E1008091E2008E7F8093E20080917C
:103A5000E20080618093E20042E060E080E00E944A
:103A6000751B8091F00088608093F0000E94EC1834
:103A7000FF91EF91BF91AF919F918F917F916F9146
:103A80005F914F913F912F910F900FBE0F901F901C
:103A900018951F920F920FB60F9211242F933F93F8
:103AA0004F935F936F937F938F939F93AF93BF9346
:103AB000CF93DF93EF93FF93C091E900CF70809194
:103AC000EC00D82FD17080FDD0E81092E9008091F1
:103AD000F000877F8093F00078940E948D1D1092F3
:103AE000E9008091F00088608093F000CD2BCF70CA
:103AF000C093E900FF91EF91DF91CF91BF91AF911A
:103B00009F918F917F916F915F914F913F912F91F5
:103B10000F900FBE0F901F9018951F93CF93DF93B8
:103B2000CDB7DEB7AA970FB6F894DEBF0FBECDBFF4
:103B3000EDEEF1E08091F100819321E0E53FF207A5
:103B4000C9F70E94FA188091E80083FF2EC1809186
:103B5000ED019091EE01492F50E04A30510508F0F7
:103B600024C1FA01E059FF4F0C941D1F803821F049
:103B7000823809F01AC108C08091E9019091EA01E8
:103B8000992389F082600FC08091F1018F70873096
:103B900008F00BC18093E9008091EB0085FB88273A
:103BA00080F91092E9009091E800977F9093E800E7
:103BB0008093F1001092F100D1C0282F2D7F09F0E1
:103BC000F4C0882319F0823061F0EFC08091EF01DA
:103BD000813009F0EAC0933009F080E08093EA0177
:103BE0002EC08091EF0181112AC08091F1018F7068
:103BF0002FEF280F263008F0D8C08093E9002091DD
:103C0000EB0020FF1CC0933021F48091EB00806218
:103C100014C09091EB0090619093EB0021E030E0B4
:103C2000A90102C0440F551F8A95E2F74093EA00AC
:103C30001092EA008091EB0088608093EB00109274
:103C4000E9008091E800877F8093E8000E94AA1B2A
:103C5000ACC08111AAC01091EF011F778091E300E1
:103C60008078812B8093E3008091E800877F8093A8
:103C7000E8000E94AA1B8091E80080FFFCCF8091A1
:103C8000E30080688093E300111102C082E001C06C
:103C900083E08093EC0189C08058823008F085C0B1
:103CA0008091EF019091F0018C3D53E0950779F5FB
:103CB00083E08A838AE289834FB7F894DE01139602
:103CC00020E03EE051E2E32FF0E050935700E49112
:103CD00020FF03C0E295EF703F5FEF708E2F90E002
:103CE000EA3010F0C79601C0C0968D939D932F5F68
:103CF000243149F74FBF8091E800877F8093E80027
:103D00006AE270E0CE0101960E94B61A16C0609178
:103D1000F1017091F201AE014F5F5F4F0E94FA19FD
:103D2000BC01892B09F441C09091E800977F9093E2
:103D3000E80089819A810E94141B8091E8008B77AA
:103D40008093E80032C0803881F58091E800877F59
:103D50008093E8008091E8018093F1008091E80071
:103D60008E7772CF811121C08091EF019091F00187
:103D700099270297D4F48091E800877F8093E80028
:103D80008091EF018093E8010E94AA1B8091E801D5
:103D9000811106C08091E30087FD02C081E001C06F
:103DA00084E08093EC010E94F0188091E80083FF8A
:103DB0000AC08091E800877F8093E8008091EB0043
:103DC00080628093EB00AA960FB6F894DEBF0FBE18
:103DD000CDBFDF91CF911F9108950895CF9380912A
:103DE000EC018823A1F0C091E900CF709091EC0024
:103DF000892F817090FD80E8C82B1092E900809196
:103E0000E80083FD0E948D1DCF70C093E900CF9123
:103E1000089597FB072E16F4009407D077FD09D07C
:103E20000E94231F07FC05D03EF4909581959F4F7B
:103E30000895709561957F4F0895EE0FFF1F0590CF
:103E4000F491E02D0994AA1BBB1B51E107C0AA1FE6
:103E5000BB1FA617B70710F0A61BB70B881F991F2B
:103E60005A95A9F780959095BC01CD010895F999CF
:103E7000FECF92BD81BDF89A992780B50895A8E13B
:103E8000B0E042E050E00C946B1F262FF999FECF72
:103E900092BD81BDF89A019700B4021639F01FBA9D
:103EA00020BD0FB6F894FA9AF99A0FBE08950396BA
:103EB000272F0E94461F0E94451F252F0E94461F44
:103EC000242F0C94461F0196272F0E94461F0C9406
:103ED000451FDC01CB01FC01F999FECF06C0F2BD04
:103EE000E1BDF89A319600B40D9241505040B8F7B8
:063EF0000895F894FFCFD5
:103EF600013101003201043201AC012808641E14AC
:103F06000A321E8B18AE188F18DA188E1801F4F5BF
:0C3F1600F6F73133946697C600000000F7
:00000001FF
